:1000000045C0000060C000005EC000005CC0000091
:10001000CAC1000058C0000056C0000054C0000013
:1000200052C0000050C000004EC000004CC0000094
:100030004AC0000048C0000046C0000044C00000A4
:1000400042C0000040C000003EC000003CC00000B4
:100050003AC0000038C0000036C0000034C00000C4
:1000600032C0000030C000002EC000002CC00000D4
:100070002AC0000028C0000026C0000024C00000E4
:1000800022C0000020C000001EC0000011241FBEBE
:10009000CFEFD0E1DEBFCDBF11E0A0E0B1E0E6EFF1
:1000A000FAE000E00BBF02C007900D92A036B10746
:1000B000D9F721E0A0E6B1E001C01D92A536B20754
:1000C000E1F713D116C59CCF8BB3806F8BBB8AB37E
:1000D0008F708ABB8BB384608BBB8BB384608BBB0C
:1000E00099B3907F8BB38B7F8BBB8BB384608BBBBF
:1000F0008BB384608BBB89B32BB32B7F2BBB8295D7
:100100008F70892B08952BB32F70382F307F40E1EB
:10011000849FC0011124922F932B9BBB9BB39460AF
:100120009BBB9BB39B7F9BBB822B8BBB8BB38460A6
:100130008BBB8BB38B7F8BBB0895CF93DF931F92C9
:10014000CDB7DEB78BB38E7F8BBB8BB382608BBB9F
:10015000BBDF898389818823ACF38BB38D7F8BBB15
:100160008FEF8ABB0F90DF91CF9108958FEF8ABBFD
:100170008ABB8BB38E7F8BBB8BB38D7F8BBB8BB3DB
:100180008B7F8BBB8BB384608BBB8BB380628BBB51
:100190008BB38B7F8BBBD1DF88E2B5DFCEDF8BB338
:1001A0008E7F8BBB8EE0AFDFC8DF8BB38E7F8BBBC8
:1001B00086E0A9DFC2CF08958BB38E7F8BBB81E031
:1001C000A2DFBBCF08959BB391609BBB9CDFB5CFF3
:1001D00008950F931F93CF938C01C0E002C0F3DF0B
:1001E000CF5FF801EC0FF11D80818111F8CFCF9125
:1001F0001F910F910895CF93DF9350D1EC0188E3C5
:1002000090E0998388831A8222E330E03C832B8339
:1002100025E02D839F838E8321E028879A87898715
:1002200022E02B879D878C8783E08E87EAE6F0E0CB
:1002300080818068808389B7886089BFCE012AD297
:10024000CE01DF91CF910895CF93DF93EC016EE063
:1002500071E046D4892B71F4AFDF80E191E0B9DF22
:1002600019BC18BC88B38F7B88BB93B180E1892708
:1002700083B938C06AE171E0CE0132D4892B69F4C8
:100280009BDF8CE191E0A5DF88EB9BE099BD88BD09
:1002900093B180E1892783B925C06BE271E0CE017B
:1002A0001FD4892B69F488DF8DE291E092DF80E72B
:1002B00097E199BD88BD93B180E1892783B912C0C8
:1002C0006CE371E0CE010CD4892B61F475DF8EE311
:1002D00091E07FDF88E293E299BD88BD93B180E130
:1002E000892783B9DF91CF910895CF93DF93CDB75D
:1002F000DEB7A8970FB6F894DEBF0FBECDBFAAD267
:1003000035DF5ADF82B1806182B987B3806487BBF1
:1003100085E0E6E0F1E0DE01119601900D928A950C
:10032000E1F769DF8C01AE014F5F5F4F60E070E085
:100330001DD182E28FBD89E18EBD1DBC1CBC19BCE4
:1003400018BC80E197E297BD86BD78948DE491E07A
:100350009AD2809160018823E1F0109260010EC072
:10036000BE016A5F7F4FC80149D2CE0108968BD289
:1003700087E591E088D2CE01089666DFC8015BD19F
:100380008111EECFAE014F5F5F4F60E070E0C801BA
:10039000EDD02FEF8FE794E0215080409040E1F7BF
:1003A00000C00000D3CF1F920F920FB60F921124FE
:1003B0008F9381E0809360018F910F900FBE0F901B
:1003C0001F901895AC0120E030E00AC0FB01E20F5D
:1003D000F31FDA01A20FB31F9C9190832F5F3F4F51
:1003E000253031059CF30895FC018DB180618DB9F4
:1003F0008DB180648DB996818781A92FB82F4E91D8
:1004000081E090E09C01008402C0220F331F0A9417
:10041000E2F7242B2C9330812181A32FB22F4E9110
:100420009C01028002C0220F331F0A94E2F7242BA2
:100430002C9334852585A32FB22F3E91AC010684E1
:1004400002C0440F551F0A94E2F7242F209523235E
:100450002C9331852285A32FB22F2E91038402C0C5
:10046000880F991F0A94E2F7822B8C938DB1877FB6
:100470008DB98DB18B7F8DB98DB18E7F8DB98DB1D9
:100480008D7F8DB98EB181608EB98DB18F7D8DB923
:1004900008958FB9779BFECF8FB1089580E190E0EA
:1004A000FED120E1FC0111922A95E9F70895AF925F
:1004B000BF92CF92DF92EF92FF920F931F93CF9351
:1004C000DF935C01862F6A017901D501EC911196C9
:1004D000FC911197908121E030E012960C9002C0BF
:1004E000220F331F0A94E2F7209529232083D1DFBE
:1004F000F5018787C0E0D0E009C086010C0F1D1F01
:10050000D8018C91C6DFF80180832196CE15DF05D6
:10051000A0F3D501EC911196FC911197208181E017
:1005200090E012960C90129702C0880F991F0A94BF
:10053000E2F7822B80831F968C91DF91CF911F91E0
:100540000F91FF90EF90DF90CF90BF90AF90089504
:100550006062ADCF0895ABCF089520E030E040E079
:1005600050E06FEFA4CF0895F8CF0895DF92EF9297
:10057000FF920F931F93CF93DF9300D000D000D052
:10058000CDB7DEB77C01D62ECA01BE016F5F7F4FAB
:1005900019DF6AE06D0D25E030E0AE014F5F5F4F7F
:1005A000C701D6DF21E030E0AE014A5F5F4F62E075
:1005B000C701D1DF01E010E0C80102C0880F991F18
:1005C000DA94E2F79E81892B8E8321E030E0AE0140
:1005D0004A5F5F4F62E0C701BBDFD7011396EC9122
:1005E00013971496FC911497808115960C9002C075
:1005F000000F111F0A94E2F7082B008326960FB60E
:10060000F894DEBF0FBECDBFDF91CF911F910F9148
:10061000FF90EF90DF900895FC0127852E7030E069
:1006200035952795263031051CF08FEF9FEF089503
:10063000822F932F0895CF93DF93EC01EB81FC8100
:10064000208181E090E00D8002C0880F991F0A94FC
:10065000E2F7809582238083CE0186DFCE01DCDF46
:10066000892F8095881F8827881FDF91CF91089553
:10067000CF93DF931F92CDB7DEB720E7298321E028
:1006800030E0AE014F5F5F4F67E062DF0F90DF91B8
:10069000CF910895FF920F931F93CF93DF931F92F3
:1006A000CDB7DEB78C01DC019C9111968C9111972E
:1006B000E92FF82F429181E090E09C0112960C9076
:1006C000129702C0220F331F0A94E2F7242B2083D3
:1006D00013963C91139714962C911497E32FF22FB5
:1006E00042919C0115960C90159702C0220F331F62
:1006F0000A94E2F7242B2083EC911196FC91119738
:1007000040819C0112960C90129702C0220F331F59
:100710000A94E2F7242B20831396EC9113971496F6
:10072000FC911497208115960C9002C0880F991F98
:100730000A94E2F7809582238083C80155DE20E089
:1007400030E040E050E062EEC801B1DE20E030E091
:1007500040E050E061EEC801AADEC80189DF8FE009
:10076000898321E030E0AE014F5F5F4F60E0C80158
:10077000EFDE0F2EFFE3FF2EF02DF98221E030E0B7
:10078000AE014F5F5F4F61E0C801E2DEF98221E018
:1007900030E0AE014F5F5F4F6CE1C801D9DE84E00D
:1007A000898321E030E0AE014F5F5F4F6DE1C8010A
:1007B000CFDE198221E030E0AE014F5F5F4F62E093
:1007C000C801C6DE0F90DF91CF911F910F91FF906E
:1007D0000895CF93DF931F92CDB7DEB7FC019785C5
:1007E0009064998321E030E0AE014F5F5F4F67E096
:1007F000CF01AEDE0F90DF91CF9108950F931F933D
:10080000CF93DF938C01EB0107DF99838883C801C5
:10081000E0DF8881998199231CF41AA280E015C039
:1008200021E030E0AE014E5D5F4F60E6C80193DE2F
:100830002AA1222349F0AE014E5F5F4F30E061E60E
:10084000C80135DE81E001C081E0DF91CF911F91C9
:100850000F9108951092980083E080939900109270
:100860009B00EAE9F0E0808188698083EDE9F0E0AF
:10087000808186608083089590919B0095FFFCCFD6
:1008800080939C000895CF93DF93EC0102C0F4DFC6
:10089000219688818111FBCFDF91CF9108950F932D
:1008A0001F93CF93DF938230910510F482E090E0A4
:1008B000E0916301F091640120E030E0A0E0B0E05D
:1008C000309719F1408151810281138148175907EE
:1008D000C8F08417950769F4109731F012960C93BD
:1008E000129713961C9327C0009363011093640121
:1008F00022C02115310519F04217530718F49A0147
:10090000BD01EF01DF01F801DBCF21153105F9F061
:10091000281B390B2430310580F48A819B816115B5
:10092000710521F0FB019383828304C090936401DD
:1009300080936301FE01329644C0FE01E20FF31F73
:100940008193919322503109398328833AC02091B1
:10095000610130916201232B41F420910201309119
:1009600003013093620120936101209100013091D5
:1009700001012115310541F42DB73EB74091040125
:1009800050910501241B350BE0916101F09162014A
:10099000E217F307A0F42E1B3F0B2817390778F056
:1009A000AC014E5F5F4F2417350748F04E0F5F1FB5
:1009B00050936201409361018193919302C0E0E002
:1009C000F0E0CF01DF91CF911F910F910895CF9368
:1009D000DF93009709F481C0FC01329713821282E1
:1009E000A0916301B0916401109781F4208131815D
:1009F000820F931F209161013091620128173907FE
:100A000051F5F0936201E093610167C0ED0120E0D0
:100A100030E0CE17DF0740F44A815B819E0141152B
:100A20005105F1F0EA01F5CFD383C28340815181B2
:100A3000840F951FC817D90759F488819981840FAD
:100A4000951F0296918380838A819B819383828301
:100A50002115310529F4F0936401E09363013DC051
:100A6000E901FB83EA8349915991C40FD51FEC1723
:100A7000FD0761F480819181840F951F0296E90141
:100A800099838883828193819B838A83E0E0F0E06D
:100A900012968D919C911397009719F0FD01DC013E
:100AA000F7CF8D919C9111979D012E5F3F4F820F43
:100AB000931F20916101309162012817390769F471
:100AC000309729F4109264011092630102C01382DE
:100AD0001282B0936201A0936101DF91CF910895DA
:100AE000FB01DC018D91019080190110D9F3990B64
:060AF0000895F894FFCF09
:100AF600000065012000010101010125640041009B
:100B06004D4F544F52204F46460042003330252069
:100B160064757479206379636C650043003630250B
:100B26002064757479206379636C650044003930FC
:100B3600252064757479206379636C65006461208F
:100B46006E68616E3A20000A2D2D2D2D2D0A0000AB
:00000001FF
