S00F000054585F746573742E737265634A
S113000045C0000060C000005EC000005CC000008D
S11300105AC00000ECC1000056C0000054C00000EB
S113002052C0000050C000004EC000004CC0000090
S11300304AC0000048C0000046C0000044C00000A0
S113004042C0000040C000003EC000003CC00000B0
S11300503AC0000038C0000036C0000034C00000C0
S113006032C0000030C000002EC000002CC00000D0
S11300702AC0000028C0000026C0000024C00000E0
S113008022C0000020C000001EC0000011241FBEBA
S1130090CFEFD0E1DEBFCDBF11E0A0E0B1E0E0E5FD
S11300A0FBE000E00BBF02C007900D92A636B1073B
S11300B0D9F721E0A6E6B1E001C01D92AD36B20742
S11300C0E1F7BFD043C59CCF8BB3806F8BBB8AB3A2
S11300D08F708ABB8BB384608BBB8BB384608BBB08
S11300E099B3907F8BB38B7F8BBB8BB384608BBBBB
S11300F08BB384608BBB89B32BB32B7F2BBB8295D3
S11301008F70892B08952BB32F70382F307F40E1E7
S1130110849FC0011124922F932B9BBB9BB39460AB
S11301209BBB9BB39B7F9BBB822B8BBB8BB38460A2
S11301308BBB8BB38B7F8BBB0895CF93DF931F92C5
S1130140CDB7DEB78BB38E7F8BBB8BB382608BBB9B
S1130150BBDF898389818823ACF38BB38D7F8BBB11
S11301608FEF8ABB0F90DF91CF9108958FEF8ABBF9
S11301708ABB8BB38E7F8BBB8BB38D7F8BBB8BB3D7
S11301808B7F8BBB8BB384608BBB8BB380628BBB4D
S11301908BB38B7F8BBBD1DF88E2B5DFCEDF8BB334
S11301A08E7F8BBB8EE0AFDFC8DF8BB38E7F8BBBC4
S11301B086E0A9DFC2CF08958BB38E7F8BBB81E02D
S11301C0A2DFBBCF08959BB391609BBB9CDFB5CFEF
S11301D008950F931F93CF938C01C0E002C0F3DF07
S11301E0CF5FF801EC0FF11D80818111F8CFCF9121
S11301F01F910F910895CF93DF9373D1EC0188E39E
S113020090E0998388831A8223E230E03C832B8335
S113021023E02D839F838E8331E038879A878987F3
S113022032E03B879D878C872E878AB782608ABF9E
S113023089B7806189BFCE01D5D1CE01DF91CF913D
S11302400895CF93DF93CDB7DEB7A8970FB6F89490
S1130250DEBF0FBECDBF87B3806487BB84B3807F0E
S113026084BB85B38F6085BB81DFA6DF85E0E6E0D4
S1130270F1E0DE01119601900D928A95E1F77894F0
S1130280BADF8C0124D380916701882341F0109256
S11302906701C801C2D2892B11F0C8018AD198998B
S11302A011C02FEF8FE593E0215080409040E1F79B
S11302B000C00000989940C01092680181E08093CA
S11302C066013AC0999911C02FEF8FE593E0215050
S11302D080409040E1F700C0000099992DC081E072
S11302E0809368018093660127C09A9912C02FEF0A
S11302F08FE593E0215080409040E1F700C000007A
S11303009A991AC082E08093680181E08093660123
S113031013C09B9911C02FEF8FE593E021508040CB
S11303209040E1F700C000009B9906C083E08093F1
S1130330680181E08093660180916601882309F455
S1130340A2CF1092660180916801813099F028F063
S11303508230E9F0833041F133C02EDF8EE091E04A
S113036038DF81E490E09987888798B380E489270F
S113037088BB26C021DF88E191E02BDF82E490E096
S11303809987888798B380E4892788BB19C014DFCC
S11303908EE291E01EDF83E490E09987888798B32A
S11303A080E4892788BB0CC007DF84E491E011DF77
S11303B084E490E09987888798B380E4892788BB90
S11303C0CE010896FC0101900020E9F73197E81B63
S11303D0F90BEF5FE8A78DD2AE014A5F5F4FBE0114
S11303E06F5F7F4FC801AFD183E37FD24CCF1F92A1
S11303F00F920FB60F9211248F9381E080936701BF
S11304008F910F900FBE0F901F901895AC0120E0B4
S113041030E00AC0FB01E20FF31FDA01A20FB31FA1
S11304209C9190832F5F3F4F253031059CF30895B5
S1130430FC018DB180618DB98DB180648DB99081DD
S11304408181A92FB82F4E9181E090E09C01028018
S113045002C0220F331F0A94E2F7242B2C93368117
S11304602781A32FB22F4E919C01008402C0220F3A
S1130470331F0A94E2F7242B2C9331852285A32F72
S1130480B22F4E919C01038402C0220F331F0A94A1
S1130490E2F7242B2C9334852585A32FB22F2E919C
S11304A0068402C0880F991F0A94E2F7809582237C
S11304B08C938DB1877F8DB98DB18B7F8DB98DB1C3
S11304C08E7F8DB98DB18D7F8DB98EB181608EB9DE
S11304D08DB18F7D8DB908958FB9779BFECF8FB184
S11304E0089580E190E011D220E1FC0111922A9557
S11304F0E9F70895AF92BF92CF92DF92EF92FF9205
S11305000F931F93CF93DF935C01862F6A017901C8
S1130510D501EC911196FC911197908121E030E086
S113052012960C9002C0220F331F0A94E2F7209512
S113053029232083D1DFF5018787C0E0D0E009C0FB
S113054086010C0F1D1FD8018C91C6DFF801808332
S11305502196CE15DF05A0F3D501EC911196FC91FF
S11305601197208181E090E012960C90129702C0BE
S1130570880F991F0A94E2F7822B80831F968C912F
S1130580DF91CF911F910F91FF90EF90DF90CF906B
S1130590BF90AF9008956062ADCF0895ABCF08953A
S11305A020E030E040E050E06FEFA4CF0895F8CFB2
S11305B0089520E030E040E050E061EE9BCF0895E4
S11305C0CF93DF931F92CDB7DEB720E7298321E0D5
S11305D030E0AE014F5F5F4F67E0DDDF0F90DF91EA
S11305E0CF910895FF920F931F93CF93DF931F92A0
S11305F0CDB7DEB78C01DC019C9111968C911197DB
S1130600E92FF82F429181E090E09C0112960C9022
S1130610129702C0220F331F0A94E2F7242B20837F
S113062013963C91139714962C911497E32FF22F61
S113063042919C0115960C90159702C0220F331F0E
S11306400A94E2F7242B2083EC911196FC911197E4
S113065040819C0112960C90129702C0220F331F06
S11306600A94E2F7242B20831396EC9113971496A3
S1130670FC911497208115960C9002C0880F991F45
S11306800A94E2F7809582238083C801D1DE20E0BA
S113069030E040E050E062EEC8012CDF20E030E0C2
S11306A040E050E061EEC80125DFC80189DF8FE03A
S11306B0898321E030E0AE014F5F5F4F60E0C80105
S11306C06ADF0F2EFFE3FF2EF02DF98221E030E0E8
S11306D0AE014F5F5F4F61E0C8015DDFF98221E049
S11306E030E0AE014F5F5F4F6CE1C80154DF84E03E
S11306F0898321E030E0AE014F5F5F4F6DE1C801B7
S11307004ADF198221E030E0AE014F5F5F4F62E0C3
S1130710C80141DF0F90DF91CF911F910F91FF909E
S11307200895CF93DF931F92CDB7DEB720E32983DB
S113073021E030E0AE014F5F5F4F67E02CDF0F90A8
S1130740DF91CF910895CF92DF92EF92FF920F93B2
S11307501F93CF93DF9300D000D000D0CDB7DEB786
S11307608C016B017A01DDDFBE016F5F7F4FC60133
S11307704DDE25E030E0AE014F5F5F4F60E1C80120
S11307800ADFBE016F5F7F4FC60140DE25E030E027
S1130790AE014F5F5F4F6AE0C801FDDED70192965C
S11307A02C91A7014E5F5F4F30E060EAC801A2DEE2
S11307B021E030E0AE014A5F5F4F60E0C801EEDE49
S11307C08E818E7F8E8321E030E0AE014A5F5F4FE1
S11307D060E0C801E0DED8011396EC9113971496FB
S11307E0FC911497208181E090E015960C9002C052
S11307F0880F991F0A94E2F7822B808326960FB6FE
S1130800F894DEBF0FBECDBFDF91CF911F910F9142
S1130810FF90EF90DF90CF900895EF92FF920F93A7
S11308201F93CF93DF931F92CDB7DEB78C01DC010A
S11308301396EC9113971496FC911497208181E000
S113084090E015960C9002C0880F991F0A94E2F765
S1130850809582238083C801AADEF801878585FFFD
S113086006C08AE591E045D0E12CF12C12C084FF4A
S113087007C08DE591E03DD0EE24EA94FE2C09C03A
S113088081E691E036D00F2EFEEFEF2EFF24FA948E
S1130890F02DC80146DF21E030E0AE014F5F5F4F2D
S11308A060E0C8017BDE89818160898321E030E0DA
S11308B0AE014F5F5F4F60E0C8016DDEC7010F906E
S11308C0DF91CF911F910F91FF90EF9008951092B7
S11308D0900083E089B91BB88AB188698AB9E5E9CF
S11308E0F0E080818660808308955D9BFECF8CB9A3
S11308F00895CF93DF93EC0102C0F7DF219688813E
S11309008111FBCFDF91CF9108950F931F93CF9364
S1130910DF938230910510F482E090E0E0916B0166
S1130920F0916C0120E030E0A0E0B0E0309719F1E4
S1130930408151810281138148175907C8F08417F7
S1130940950769F4109731F012960C931297139649
S11309501C9327C000936B0110936C0122C02115D6
S1130960310519F04217530718F49A01BD01EF013C
S1130970DF01F801DBCF21153105F9F0281B390B14
S11309802430310580F48A819B816115710521F041
S1130990FB019383828304C090936C0180936B0169
S11309A0FE01329644C0FE01E20FF31F819391933E
S11309B022503109398328833AC02091690130914A
S11309C06A01232B41F420910201309103013093F9
S11309D06A012093690120910001309101012115E0
S11309E0310541F42DB73EB7409104015091050102
S11309F0241B350BE0916901F0916A01E217F307BA
S1130A00A0F42E1B3F0B2817390778F0AC014E5F7A
S1130A105F4F2417350748F04E0F5F1F50936A014C
S1130A20409369018193919302C0E0E0F0E0CF012B
S1130A30DF91CF911F910F910895CF93DF9300978A
S1130A4009F481C0FC01329713821282A0916B01D8
S1130A50B0916C01109781F420813181820F931F32
S1130A602091690130916A012817390751F5F093F3
S1130A706A01E093690167C0ED0120E030E0CE1720
S1130A80DF0740F44A815B819E0141155105F1F075
S1130A90EA01F5CFD383C28340815181840F951F2E
S1130AA0C817D90759F488819981840F951F029634
S1130AB0918380838A819B8193838283211531056D
S1130AC029F4F0936C01E0936B013DC0E901FB83D1
S1130AD0EA8349915991C40FD51FEC17FD0761F4BE
S1130AE080819181840F951F0296E90199838883FF
S1130AF0828193819B838A83E0E0F0E012968D915A
S1130B009C911397009719F0FD01DC01F7CF8D91AB
S1130B109C9111979D012E5F3F4F820F931F20914F
S1130B20690130916A012817390769F4309729F46B
S1130B3010926C0110926B0102C013821282B09366
S1130B406A01A0936901DF91CF910895F894FFCFD2
S1130B5000006D01200001010101012564004D4FD9
S1130B60544F52204F46460074727579656E203397
S1130B7030252064757479206379636C6500747220
S1130B807579656E20363025206475747920637913
S1130B90636C650074727579656E20393025206444
S1130BA0757479206379636C6500300A002D310A0D
S1090BB0002D320A0000D2
S9030000FC
